:1000000041C042C85AC059C058C057C029C255C083
:1000100054C053C072C651C050C04FC04EC04DC036
:100020004CC04BC04AC00403090412036F006200B5
:100030006400650076002E006100740016034C0019
:100040004500440043006F006E00740072006F00B2
:100050006C0012011001FF000008C016DC05000151
:1000600001020001090220000101008014090400BE
:100070000002000000000705810308000A0705834D
:100080000308000A11241FBECFE5D4E0DEBFCDBFB8
:1000900011E0A0E6B0E0E4EEF2E102C005900D92BE
:1000A000A230B107D9F713E0A2E0B1E001C01D9280
:1000B000A337B107E1F74ED413C9A2CFDF92EF9275
:1000C000FF920F931F93CF93DF937C01D62E8091E5
:1000D000020190910301892B79F5C4E0D1E060E041
:1000E00070E000E010E0E8E0F4E8DB01A80198012E
:1000F000CD018427952780FF07C0CA019695879573
:10010000AC014E275F2702C0569547952F5F3F4FA2
:100110002830310519F0B695A795EACF4993599340
:100120006F5F7F4F81E060307807F9F681E090E003
:1001300090930301809302018F2D9927ED2DF0E01C
:10014000EE25FF25F070EE0FFF1FEC5FFE4F2081C4
:10015000318128273927822F932FDF91CF911F914B
:100160000F91FF90EF90DF900895282F8091040366
:100170008823B1F4222309F441C0213019F0223040
:1001800039F00DC081E08093050380930403089546
:1001900083E08093050382E0809304030895FFCFFA
:1001A000813019F0823071F029C0E0912903F0917B
:1001B0002A032083809105038150809305031092C8
:1001C0000403089590910503913061F410920403A3
:1001D0008091DE008093D500E0912703F091280301
:1001E0008FEF8083E4E0F0E0E91BF109E352FF4F79
:1001F0002083892F8150809305030895FFCF80913C
:1002000007038823C9F48091B8009091B90060E099
:1002100070E0E8D0882311F080E00895809100001C
:100220008F3F39F081E08093070380910000809335
:10023000060380910000089580910603813011F437
:10024000109207038091A3009091A40060E070E0F9
:10025000C9D08091060381508093060380910000ED
:100260000895CF93DF93EC01613031F5809108035D
:10027000882311F580910A03882381F48091A300DB
:100280009091A40086D0873120F481E08093080308
:1002900047C081E080930A03109209038091A30074
:1002A0009091A40068817FD08823D1F580910903C3
:1002B0008F5F8093090334C0662391F580910A0310
:1002C0008130B9F410920A038091A3009091A400A8
:1002D000688169D0882329F4809109038F5F809316
:1002E00009038091B8009091B900609109035BD037
:1002F00017C080910803813099F41092080380910F
:10030000B8009091B90060E070E08AD08091000060
:100310008F3F31F08091B8009091B9006FEF43D0DA
:10032000DF91CF910895FC018FB7F89471836083BA
:10033000428313828FBF0895DC012FB7F894139680
:100340009C91139712968C911297981778F4ED91CF
:10035000FC911197E90FF11D608313968C9113970F
:100360008F5F13968C932FBF8FEF08952FBF80E080
:100370000895FC01808191810895FC01838113829D
:100380000895FC018081815092812181921B8923F3
:100390000895FC018081382F315092812181921B78
:1003A0003923831B08951F93CF93DF93EC01162FFE
:1003B000E8DF90E0288130E0215030408217930739
:1003C00011F481E00BC08A81FE01E80FF11D138357
:1003D000988191508F5F98239A8380E0DF91CF912D
:1003E0001F9108950F931F93CF93DF93EC018B011F
:1003F000C8DF882311F481E00EC08981FE01E80F77
:10040000F11D8381F80180839881915089818F5FEC
:100410009823998380E0DF91CF911F910F910895E8
:100420000F931F93CF93DF93EC018B01AADF8823F7
:1004300011F481E010C0288130E0215030408A81E1
:1004400090E0019728233923FE01E20FF31F8381F7
:10045000F801808380E0DF91CF911F910F91089583
:100460001F920F920FB60F9211248F93EF93FF9369
:10047000839B14C0E0912903F0912A03808180FFBF
:1004800006C0E0912303F091240313821AC0E09187
:100490002303F091240381E0838313C0E0912903B7
:1004A000F0912A03808180FF07C0E0912303F0913F
:1004B000240381E0838305C0E0912303F0912403AA
:1004C0001382E0912D03F0912E038281882399F00D
:1004D000E0912903F0912A03808181FF06C0E2E3C5
:1004E000F0E080818F7D808318C0E2E3F0E08081BE
:1004F0008062808312C0E0912903F0912A038081F9
:1005000081FF06C0E2E3F0E080818062808305C065
:10051000E2E3F0E080818F7D8083E0912303F0911E
:10052000240381E08483FF91EF918F910F900FBEA0
:100530000F901F901895E0912003F0912103908176
:10054000990F9083882309F453C08091140381602C
:1005500080931403E0912F03F091300380818F5F2B
:100560008083A0912F03B09130038C91813059F496
:10057000E0912303F09124038181813021F081E017
:10058000809315037BC08C91853039F4E09123036F
:10059000F091240381E0808371C08C91863071F4E6
:1005A000E0912303F09124031082E0912303F09162
:1005B0002403818191E08927818360C08C918730F9
:1005C00009F05CC0E0912303F09124031082E091D4
:1005D0002303F09124031182E0912303F09124037B
:1005E00081E08283E0912F03F0913003108246C0B6
:1005F000E0912303F09124038081813091F4E09114
:100600002003F091210380818695808380911503DA
:10061000815080931503E0912303F091240310820D
:100620001FC08281813039F41182E0912303F0915F
:100630002403128215C08181813091F48681882340
:1006400079F0E0911803F09119031082E0912303EF
:10065000F09124031682E0911C03F0911D03108297
:10066000E0912303F09124038181882311F481E038
:100670008683E0912F03F09130031082809115035F
:100680008F5F809315030895CF93DF93DC0113965A
:100690002D913C911497E0912D03F0912E039181BF
:1006A000E0911003F09111038081882361F012968C
:1006B0001C921297E0911003F091110310828C911B
:1006C00081508C932FC0E901C90FD11D88812C91D5
:1006D00090E002C0959587952A95E2F780FF1EC0AD
:1006E00081E012968C93129788818E578230D0F0D9
:1006F000E0911003F091110385818F5F8583E09174
:100700001003F09111038581853061F41582E09129
:100710001003F091110381E0808304C015821296CA
:100720001C9212978C918F5F8C938C91883009F07A
:1007300047C011968C9111978F5F11968C931197EA
:1007400011969C91119715968C9115979817B9F55C
:1007500011961C921197C0912703D091280388818C
:10076000813051F480911E0390911F0390932E03CA
:1007700080932D03188223C0E0912303F09124037A
:100780008181E0911003F09111039181882361F43C
:10079000913051F4809112039091130390932E03A2
:1007A00080932D0311820BC08881882341F48091AE
:1007B00025039091260390932E0380932D031C9282
:1007C000DF91CF910895E0912703F0912803808174
:1007D000882349F4809125039091260390932E035A
:1007E00080932D0308958081813041F480911E0310
:1007F00090911F0390932E0380932D030895CF9320
:10080000DF93DC01EB01E0912303F091240381816C
:100810008130C9F48C918F5F8C938330A1F468810F
:10082000633049F0653039F0E0911C03F0911D030D
:1008300081E0808309C0E0911C03F0911D0381E0F9
:10084000808380E001C080E0DF91CF910895FC01BA
:1008500090818081869580838081882319F427E0A8
:1008600030E00EC027E030E08081990F8170982B36
:100870002150304080818695808380818823A1F734
:10088000892F90E002C0880F991F2A95E2F7808394
:100890000895E7E3F0E0808180618083EDE2F0E09D
:1008A0008081846C808380818083EEE2F0E08081AF
:1008B0008F7780831FB80895FC018181882349F4D4
:1008C000E0912903F0912A038081806880838FEF73
:1008D0000895813061F48281882311F08FEF0895AB
:1008E000E8E3F0E080818E7F808380E008958230AD
:1008F00011F080E0089588B3EBE0F3E0817080832D
:10090000F0934C03E0934B0381E00895CF93DF9382
:10091000EC01E0912903F0912A0380818823A4F05F
:10092000AEEDB0E08881FD018193898180838A8169
:1009300012968C9388818093D500E0912703F091E3
:1009400028038FEF808302C08881808381E0DF915C
:10095000CF910895DF93CF93CDB7DEB7EA970FB667
:10096000F894DEBF0FBECDBFDE011596E8EFF0E0D4
:1009700087E001900D928150E1F79E01245F3F4F87
:1009800087E0F90111928A95E9F786E0DE01539636
:10099000FD01482F11924A95E9F7AE01475E5F4F7E
:1009A000FA01982F11929A95E9F7BE01615E7F4F87
:1009B000FB0111928A95E9F7CE01C2969093170335
:1009C000809316031BAA1AAA84E193E09093210353
:1009D0008093200310921403FE01B596F093300328
:1009E000E0932F031082FE01B796F0931903E09372
:1009F00018031082FE01B896F0931D03E0931C03C8
:100A00001082FE01B996F0932A03E093290383E054
:100A10008083CE0105969093240380932303309323
:100A20001103209310038AEB90E09F8B8E8B8CE058
:100A3000888F8DED90E09D8F8C8F8CE18E8F26ECD2
:100A400030E03BA32AA387E18CA3B0932603A093B5
:100A5000250350931F0340931E0370931303609369
:100A60001203B0932E03A0932D031092150382E27C
:100A700093E090931B0380931A0310922203FE01CC
:100A8000B696F0932803E09327031082CE010196D7
:100A900090932C0380932B03F901F785FCAB4EE078
:100AA00028E130E00FB6F894A89521BD0FBE41BDF6
:100AB0002EE42BBD20E22ABDE9E5F0E02081206193
:100AC0002083E8E5F0E0208120612083EEE4F0E07F
:100AD00020812A60208301E310E0F8012081277F34
:100AE0002083E2E3F0E0208128602083F801208168
:100AF00020622083BE01665D7F4F48E014DCC9DEC2
:100B000027D1F8018081806180832FEF40EA5FE088
:100B1000A895CA010197F1F72150D1F7E1E3F0E080
:100B200080818F7E808378940F2EFEED6F2EF0E013
:100B30007F2EF02D23010894411C511C22243324C4
:100B4000689421F8260C371C0F2EF3E0AF2EBB243F
:100B5000F02DA60CB71C88249924689482F8860C82
:100B6000971C0F2EF5EDEF2EF0E0FF2EF02DC701B4
:100B700001969EAB8DABF7013296F8AFEFABC70194
:100B800003969AAF89AF0F2EFFE5CF2EDD24F02D0F
:100B9000A895F5D0E0912303F09124038481882364
:100BA00061F08381C8DC80912D0390912E036CDD70
:100BB000E0912303F09124031482E0912703F09144
:100BC000280380818F3FD1F51BAA1AAA80E090E00C
:100BD000F301608173DA9BAB8AABF20160816EDA5C
:100BE0009BAB8AABF101608169DA8AAB9BABF50103
:100BF0008083F4019083E0912703F091280341E082
:100C00004083F7018081FCA98F17C1F01BAA1AAAA3
:100C100080E090E0F701608151DA9BAB8AABEDA9EF
:100C2000FEA960814BDA8AAB9BABEFA9F8AD80835C
:100C3000E9ADFAAD9083F701F081FCAB809115032B
:100C4000883009F0A5CFA0911A03B0911B03E09161
:100C50002003F091210380818C9380911A0390915D
:100C60001B03F5DD88A5882379F40091100310910A
:100C7000110360911A0370911B03809118039091E6
:100C80001903BDDDF8018183ECE3F3E0808184FF8B
:100C900018C0E0911A03F0911B03608180912B032F
:100CA00090912C0349DB80912B0390912C0365DB01
:100CB000182F80912B0390912C035BDB612FC7D100
:100CC0000AC0E0911A03F0911B03608180912B030D
:100CD00090912C0331DB10921503F6011081F894EA
:100CE000E0912303F0912403618180911A03909194
:100CF0001B03B7DAF60110834BCF1F920F920FB68A
:100D00000F9211242F933F934F935F936F937F9391
:100D10008F939F93AF93BF93EF93FF938FB18823EC
:100D200019F46DDA8FB903C020DA8AEA8FB9FF911E
:100D3000EF91BF91AF919F918F917F916F915F9153
:100D40004F913F912F910F900FBE0F901F901895CC
:100D5000E5E5F0E0808182608083EBE5F0E0808172
:100D600080648083ADE3B3E08BE48C93E8E6F3E04A
:100D7000808311978AE58C933197808308951F9320
:100D8000CF93DF9380914D03682F63500AF4BFC067
:100D900080914A032CE030E0281B3109F901EF5A19
:100DA000FC4F809149038D3209F09FC0683009F0F3
:100DB000ACC0EF0183EC809331038AE58093FF00A0
:100DC00010920F038081807621F0CF0175DD282FEE
:100DD00076C0928110923A038181882331F4EBE34B
:100DE000F3E0108222E0319766C0853031F49093B1
:100DF0004E0320E0EAE3F3E05EC08630D1F5838164
:100E0000813041F482E590E090934C0380934B0352
:100E100022E12BC0823041F484E690E090934C03B1
:100E200080934B0320E221C08330F1F4992341F4F5
:100E300086E290E090934C0380934B0324E015C02E
:100E4000913041F48AE290E090934C0380934B03FD
:100E500022E10BC0923041F48CE390E090934C037C
:100E600080934B0326E101C020E080E480930F03D0
:100E700026C0883021F421E0E0E5F3E01CC0893091
:100E800031F49093500320E0EAE3F3E014C08A3099
:100E900021F421E0EAE3F3E00EC08B3021F020E002
:100EA000EAE3F3E008C08BE480933D03809368039A
:100EB00020E0EAE3F3E0F0934C03E0934B032F3F91
:100EC00051F48881882314F0922F01C09E8180E81C
:100ED00080930F0307C08F81882319F49E81921796
:100EE00008F0922F9093000110C080910F03882387
:100EF00064F4CF010BDD8F3F21F48EE18093FF007E
:100F000004C0882311F01092000110924D038091CB
:100F1000FF0084FF51C0109100011F3F09F44CC035
:100F2000193008F056C010920001E1E3F3E080812F
:100F300098E889278083112309F457C040914B0317
:100F400050914C0380910F0386FF10C0FA01212FAE
:100F5000A2E3B3E084918D9331962150D9F7CA0171
:100F60000196212F2150820F911D0EC0DA01212FF1
:100F7000E2E3F3E08D9181932150E1F7CA010196FC
:100F8000212F2150820F911D90934C0380934B038E
:100F9000193060F482E393E0612F72D0212F2C5F2F
:100FA0002C3040F48FEF8093000104C08FEF8093CA
:100FB00000012EE12093FF0094E1E0E3F0E0808166
:100FC0008471C9F49150D9F710924E0310924803DE
:100FD00012C0812F885080930001E1E3F3E080810B
:100FE00098E88927808318E0A9CF82E393E060E046
:100FF00047D024E0D7CFDF91CF911F9108951F9361
:10100000CF93DF93DC01162FEA01888184FF05C0AE
:10101000898198E88927898302C08AE58883AE019F
:101020004E5F5F4F212FFA018D918193215012164F
:10103000DCF3CA01612F24D0812F8C5F8883DF917C
:10104000CF911F91089547E653E0D9DF08954CE30F
:1010500053E0D5DF0895A82FB92F80E090E041E05C
:1010600050EA609530E009C02D91822797958795C9
:1010700010F084279527305EC8F36F5FA8F30895BA
:10108000EADF8D939D930895CF93CFB7CF93DF93EE
:10109000C395849BE9F7849B0BC0849B09C0849B08
:1010A00007C0849B05C0849B03C0849B01C08BC088
:1010B0006F93C0914A03DD27CF5ADC4F2F9365E52C
:1010C000849B03C02F916F91E6CF0F931F934F9393
:1010D00020E040E15F9300B3047104FB27F93F93E4
:1010E00050E03BE039C0147140642F77012F5F5FFF
:1010F0001EC0406810B314712F7752501FC0406457
:1011000000B32F770471D1F15F5F00C023C040624C
:1011100010B32F77147191F15F5F00C025C0047187
:101120001027515012F45D5F0000115027952C3F9D
:1011300010B3C8F614710127015027952C3FC8F64B
:101140004227499300B3047110274F73115027951C
:101150002C3FA8F64695469510B3147179F00127F7
:10116000015027952C3F98F66B5A60F3315000B32D
:10117000B0F600C010E41ABF002719C03B503195EB
:10118000C31BD04010E41ABF0881033C09F10B34A3
:10119000F9F0209148031981110F1213EDCF4A8104
:1011A000441F093651F10D3211F0013E29F7009329
:1011B0004F033F915F914F911F910F912F916F912D
:1011C000CAB7C6FD65CFDF91CF91CFBFCF9118953C
:1011D00020914F03222369F310914D031123E9F568
:1011E0003430EAF130934D032093490310914A03C0
:1011F0003BE0311B30934A0332C000914D03013074
:1012000064F50AE54F7049F43091FF0034FD28C0C1
:101210000093FF00C1E3D3E027C0433049F0309191
:101220003C0334FD1DC000933C03CDE3D3E01CC060
:101230003091670334FD14C000936703C8E6D3E020
:1012400013C0052710E000C0000002BB1AC005272C
:1012500010E0221F1DC010E021C04AE502C032ED9F
:10126000432FC4E1D0E032E011B31461949A02B389
:1012700011BB54E120E865E320FF052702BB279559
:1012800017951C3FF0F66695B8F7B1F720FF0527D4
:1012900002BB279517951C3FD0F62795179517FF8A
:1012A000052700001C3F02BBB0F629913A9519F7BB
:1012B0000B7E10914E03110FC651D04002BB11F0AE
:1012C0001093480310E41ABF006111B31B7E402F36
:1012D0004B7E54E05A95F1F702BB11BB42BB69CF7C
:0412E000F894FFCFB0
:1012E40040000000000000000000000000000000BA
:1012F40000000000000000000000000000000000EA
:1013040000000000000000000000000000000000D9
:1013140000000000000000000000000000000000C9
:101324000000006000100000000000000000000049
:101334000000000000000000A50000007F00000085
:101344000000000000000000000000000000000099
:10135400000000007E0903432B7E0000007E092468
:101364000CE3D47E00000000000000000000000038
:101374000000000000000000000000000000015A0E
:02138400FF0068
:00000001FF
